{
  "contractName": "PatientsCon",
  "abi": [
    {
      "inputs": [],
      "payable": false,
      "stateMutability": "nonpayable",
      "type": "constructor"
    },
    {
      "anonymous": false,
      "inputs": [
        {
          "indexed": false,
          "internalType": "uint256",
          "name": "id",
          "type": "uint256"
        },
        {
          "indexed": false,
          "internalType": "string",
          "name": "name",
          "type": "string"
        },
        {
          "indexed": false,
          "internalType": "int256",
          "name": "Phone",
          "type": "int256"
        },
        {
          "indexed": false,
          "internalType": "string",
          "name": "In_charge",
          "type": "string"
        }
      ],
      "name": "PatCreated",
      "type": "event"
    },
    {
      "constant": true,
      "inputs": [],
      "name": "Counter",
      "outputs": [
        {
          "internalType": "uint256",
          "name": "",
          "type": "uint256"
        }
      ],
      "payable": false,
      "stateMutability": "view",
      "type": "function"
    },
    {
      "constant": true,
      "inputs": [
        {
          "internalType": "uint256",
          "name": "",
          "type": "uint256"
        }
      ],
      "name": "patientsMap",
      "outputs": [
        {
          "internalType": "uint256",
          "name": "id",
          "type": "uint256"
        },
        {
          "internalType": "string",
          "name": "name",
          "type": "string"
        },
        {
          "internalType": "int256",
          "name": "Phone",
          "type": "int256"
        },
        {
          "internalType": "string",
          "name": "In_charge",
          "type": "string"
        }
      ],
      "payable": false,
      "stateMutability": "view",
      "type": "function"
    },
    {
      "constant": false,
      "inputs": [
        {
          "internalType": "string",
          "name": "_text",
          "type": "string"
        },
        {
          "internalType": "int256",
          "name": "_Phone",
          "type": "int256"
        },
        {
          "internalType": "string",
          "name": "_In_charge",
          "type": "string"
        }
      ],
      "name": "createP",
      "outputs": [],
      "payable": false,
      "stateMutability": "nonpayable",
      "type": "function"
    },
    {
      "constant": true,
      "inputs": [
        {
          "internalType": "uint256",
          "name": "_index",
          "type": "uint256"
        }
      ],
      "name": "get",
      "outputs": [
        {
          "internalType": "string",
          "name": "_text",
          "type": "string"
        },
        {
          "internalType": "int256",
          "name": "_Phone",
          "type": "int256"
        },
        {
          "internalType": "string",
          "name": "_In_charge",
          "type": "string"
        }
      ],
      "payable": false,
      "stateMutability": "view",
      "type": "function"
    },
    {
      "constant": false,
      "inputs": [
        {
          "internalType": "uint256",
          "name": "_index",
          "type": "uint256"
        },
        {
          "internalType": "string",
          "name": "_text",
          "type": "string"
        },
        {
          "internalType": "int256",
          "name": "_Phone",
          "type": "int256"
        },
        {
          "internalType": "string",
          "name": "_In_charge",
          "type": "string"
        }
      ],
      "name": "update",
      "outputs": [],
      "payable": false,
      "stateMutability": "nonpayable",
      "type": "function"
    }
  ],
  "bytecode": "0x6080604052600080553480156200001557600080fd5b506200006960405180604001604052806006815260200165105c98da1a5d60d21b8152506130396040518060400160405280600881526020016710dc995cd8d95b9d60c21b8152506200015e60201b60201c565b620000ba60405180604001604052806006815260200165105c98da1a5d60d21b8152506185b9604051806040016040528060068152602001654e6176616c6560d01b8152506200015e60201b60201c565b6200010d604051806040016040528060078152602001664b61727468696360c81b81525061092960405180604001604052806007815260200166446f63206f636b60c81b8152506200015e60201b60201c565b620001586040518060400160405280600381526020016253616d60e81b8152506130396040518060400160405280600381526020016204f70760ec1b8152506200015e60201b60201c565b620003a2565b600080546001908101808355604080516080810182528281526020808201898152828401899052606083018890529386528481529190942084518155915180519293620001b493908501929190910190620002fd565b506040820151600282015560608201518051620001dc916003840191602090910190620002fd565b509050507fcb86191a107410b6c28702f56066de6b05e093ee0c94ed3fbf2d5e966d22d9cb600054848484604051808581526020018060200184815260200180602001838103835286818151815260200191508051906020019080838360005b83811015620002565781810151838201526020016200023c565b50505050905090810190601f168015620002845780820380516001836020036101000a031916815260200191505b50838103825284518152845160209182019186019080838360005b83811015620002b95781810151838201526020016200029f565b50505050905090810190601f168015620002e75780820380516001836020036101000a031916815260200191505b50965050505050505060405180910390a1505050565b828054600181600116156101000203166002900490600052602060002090601f016020900481019282601f106200034057805160ff191683800117855562000370565b8280016001018555821562000370579182015b828111156200037057825182559160200191906001019062000353565b506200037e92915062000382565b5090565b6200039f91905b808211156200037e576000815560010162000389565b90565b610a4180620003b26000396000f3fe608060405234801561001057600080fd5b50600436106100575760003560e01c80634eeca0761461005c57806360ff050b146100765780636a0da4681461017f5780639507d39a146102b2578063bcbad115146103b4575b600080fd5b6100646104ec565b60408051918252519081900360200190f35b6100936004803603602081101561008c57600080fd5b50356104f2565b604051808581526020018060200184815260200180602001838103835286818151815260200191508051906020019080838360005b838110156100e05781810151838201526020016100c8565b50505050905090810190601f16801561010d5780820380516001836020036101000a031916815260200191505b50838103825284518152845160209182019186019080838360005b83811015610140578181015183820152602001610128565b50505050905090810190601f16801561016d5780820380516001836020036101000a031916815260200191505b50965050505050505060405180910390f35b6102b06004803603606081101561019557600080fd5b810190602081018135600160201b8111156101af57600080fd5b8201836020820111156101c157600080fd5b803590602001918460018302840111600160201b831117156101e257600080fd5b91908080601f01602080910402602001604051908101604052809392919081815260200183838082843760009201919091525092958435959094909350604081019250602001359050600160201b81111561023c57600080fd5b82018360208201111561024e57600080fd5b803590602001918460018302840111600160201b8311171561026f57600080fd5b91908080601f016020809104026020016040519081016040528093929190818152602001838380828437600092019190915250929550610630945050505050565b005b6102cf600480360360208110156102c857600080fd5b50356107c5565b604051808060200184815260200180602001838103835286818151815260200191508051906020019080838360005b838110156103165781810151838201526020016102fe565b50505050905090810190601f1680156103435780820380516001836020036101000a031916815260200191505b50838103825284518152845160209182019186019080838360005b8381101561037657818101518382015260200161035e565b50505050905090810190601f1680156103a35780820380516001836020036101000a031916815260200191505b509550505050505060405180910390f35b6102b0600480360360808110156103ca57600080fd5b81359190810190604081016020820135600160201b8111156103eb57600080fd5b8201836020820111156103fd57600080fd5b803590602001918460018302840111600160201b8311171561041e57600080fd5b91908080601f01602080910402602001604051908101604052809392919081815260200183838082843760009201919091525092958435959094909350604081019250602001359050600160201b81111561047857600080fd5b82018360208201111561048a57600080fd5b803590602001918460018302840111600160201b831117156104ab57600080fd5b91908080601f016020809104026020016040519081016040528093929190818152602001838380828437600092019190915250929550610927945050505050565b60005481565b600160208181526000928352604092839020805481840180548651600296821615610100026000190190911695909504601f8101859004850286018501909652858552909491939290919083018282801561058e5780601f106105635761010080835404028352916020019161058e565b820191906000526020600020905b81548152906001019060200180831161057157829003601f168201915b505050506002838101546003850180546040805160206001841615610100026000190190931695909504601f8101839004830286018301909152808552959692959294509091908301828280156106265780601f106105fb57610100808354040283529160200191610626565b820191906000526020600020905b81548152906001019060200180831161060957829003601f168201915b5050505050905084565b60008054600190810180835560408051608081018252828152602080820189815282840189905260608301889052938652848152919094208451815591518051929361068493908501929190910190610971565b5060408201516002820155606082015180516106aa916003840191602090910190610971565b509050507fcb86191a107410b6c28702f56066de6b05e093ee0c94ed3fbf2d5e966d22d9cb600054848484604051808581526020018060200184815260200180602001838103835286818151815260200191508051906020019080838360005b8381101561072257818101518382015260200161070a565b50505050905090810190601f16801561074f5780820380516001836020036101000a031916815260200191505b50838103825284518152845160209182019186019080838360005b8381101561078257818101518382015260200161076a565b50505050905090810190601f1680156107af5780820380516001836020036101000a031916815260200191505b50965050505050505060405180910390a1505050565b606060006060600060016000868152602001908152602001600020905080600101816002015482600301828054600181600116156101000203166002900480601f0160208091040260200160405190810160405280929190818152602001828054600181600116156101000203166002900480156108845780601f1061085957610100808354040283529160200191610884565b820191906000526020600020905b81548152906001019060200180831161086757829003601f168201915b5050845460408051602060026001851615610100026000190190941693909304601f8101849004840282018401909252818152959850869450925084019050828280156109125780601f106108e757610100808354040283529160200191610912565b820191906000526020600020905b8154815290600101906020018083116108f557829003601f168201915b50505050509050935093509350509193909250565b60008481526001602081815260409092208551909261094c9284019190870190610971565b506002810183905581516109699060038301906020850190610971565b505050505050565b828054600181600116156101000203166002900490600052602060002090601f016020900481019282601f106109b257805160ff19168380011785556109df565b828001600101855582156109df579182015b828111156109df5782518255916020019190600101906109c4565b506109eb9291506109ef565b5090565b610a0991905b808211156109eb57600081556001016109f5565b9056fea265627a7a72315820acc7753b7c5065d77571ab5c8dc21a1fb19077c056ccacff139e71dc2c91ea9e64736f6c63430005100032",
  "source": "\r\n// SPDX-License-Identifier: MIT\r\npragma solidity >=0.4.22 <0.9.0;\r\ncontract PatientsCon {\r\n    \r\n    uint public Counter = 0;\r\n    struct Patient {\r\n        uint id;\r\n        string name;\r\n        int Phone;\r\n        string In_charge;\r\n    }\r\n\r\n    mapping (uint => Patient) public patientsMap;\r\n\r\n    event PatCreated(uint id ,string name ,int Phone ,string In_charge);\r\n    constructor() public{\r\n        createP(\"Archit\", 12345, \"Crescent\");\r\n        createP(\"Archit\", 34233, \"Navale\");\r\n        createP(\"Karthic\", 2345, \"Doc ock\");\r\n        createP(\"Sam\", 12345, \"Opp\");\r\n    }\r\n\r\n    function createP(string memory _text,int  _Phone,string memory _In_charge) public {\r\n       \r\n        Counter ++;\r\n        \r\n        patientsMap[Counter] = Patient(Counter,_text,_Phone,_In_charge);\r\n\r\n        // patients.push(Patient({\r\n        //     name: _text,\r\n        //     Phone: _Phone,\r\n        //     In_charge: _In_charge\r\n        // }));\r\n\r\n        // Patient memory patient1;\r\n        // patient1.name = _text;\r\n        // patient1.Phone = _Phone;\r\n        // patient1.In_charge = _In_charge;\r\n\r\n        // patients.push(patient1);\r\n        emit PatCreated(Counter,_text,_Phone,_In_charge);\r\n\r\n\r\n    }\r\n\r\n  \r\n    function get(uint _index) public view returns (string memory _text,int  _Phone,string memory _In_charge) {\r\n        Patient storage patient1 = patientsMap[_index];\r\n        return (patient1.name,patient1.Phone,patient1.In_charge);\r\n    }\r\n\r\n    // update text\r\n    function update(uint _index, string memory _text,int  _Phone,string memory _In_charge) public {\r\n        Patient storage patient1 = patientsMap[_index];\r\n        patient1.name = _text;\r\n        patient1.Phone = _Phone;\r\n        patient1.In_charge = _In_charge;\r\n    }\r\n\r\n }",
  "sourcePath": "D:\\paul\\Coding_related\\HACKATHON\\GitUpload\\Men-In-Black\\Dup\\contracts\\PatientsCon.sol",
  "compiler": {
    "name": "solc",
    "version": "0.5.16+commit.9c3226ce.Emscripten.clang"
  },
  "schemaVersion": "3.4.3",
  "updatedAt": "2021-09-26T09:32:37.984Z",
  "networkType": "ethereum",
  "devdoc": {
    "methods": {}
  },
  "userdoc": {
    "methods": {}
  }
}